{
  "address": "0xd2F867cB70971c6A2A5259fFa2D925fA879329aF",
  "abi": [
    {
      "inputs": [],
      "stateMutability": "nonpayable",
      "type": "constructor"
    },
    {
      "inputs": [
        {
          "internalType": "address",
          "name": "sender",
          "type": "address"
        },
        {
          "internalType": "uint256",
          "name": "tokenId",
          "type": "uint256"
        },
        {
          "internalType": "address",
          "name": "owner",
          "type": "address"
        }
      ],
      "name": "ERC721IncorrectOwner",
      "type": "error"
    },
    {
      "inputs": [
        {
          "internalType": "address",
          "name": "operator",
          "type": "address"
        },
        {
          "internalType": "uint256",
          "name": "tokenId",
          "type": "uint256"
        }
      ],
      "name": "ERC721InsufficientApproval",
      "type": "error"
    },
    {
      "inputs": [
        {
          "internalType": "address",
          "name": "approver",
          "type": "address"
        }
      ],
      "name": "ERC721InvalidApprover",
      "type": "error"
    },
    {
      "inputs": [
        {
          "internalType": "address",
          "name": "operator",
          "type": "address"
        }
      ],
      "name": "ERC721InvalidOperator",
      "type": "error"
    },
    {
      "inputs": [
        {
          "internalType": "address",
          "name": "owner",
          "type": "address"
        }
      ],
      "name": "ERC721InvalidOwner",
      "type": "error"
    },
    {
      "inputs": [
        {
          "internalType": "address",
          "name": "receiver",
          "type": "address"
        }
      ],
      "name": "ERC721InvalidReceiver",
      "type": "error"
    },
    {
      "inputs": [
        {
          "internalType": "address",
          "name": "sender",
          "type": "address"
        }
      ],
      "name": "ERC721InvalidSender",
      "type": "error"
    },
    {
      "inputs": [
        {
          "internalType": "uint256",
          "name": "tokenId",
          "type": "uint256"
        }
      ],
      "name": "ERC721NonexistentToken",
      "type": "error"
    },
    {
      "inputs": [],
      "name": "ReentrancyGuardReentrantCall",
      "type": "error"
    },
    {
      "anonymous": false,
      "inputs": [
        {
          "indexed": true,
          "internalType": "address",
          "name": "owner",
          "type": "address"
        },
        {
          "indexed": true,
          "internalType": "address",
          "name": "approved",
          "type": "address"
        },
        {
          "indexed": true,
          "internalType": "uint256",
          "name": "tokenId",
          "type": "uint256"
        }
      ],
      "name": "Approval",
      "type": "event"
    },
    {
      "anonymous": false,
      "inputs": [
        {
          "indexed": true,
          "internalType": "address",
          "name": "owner",
          "type": "address"
        },
        {
          "indexed": true,
          "internalType": "address",
          "name": "operator",
          "type": "address"
        },
        {
          "indexed": false,
          "internalType": "bool",
          "name": "approved",
          "type": "bool"
        }
      ],
      "name": "ApprovalForAll",
      "type": "event"
    },
    {
      "anonymous": false,
      "inputs": [
        {
          "indexed": true,
          "internalType": "uint256",
          "name": "eventId",
          "type": "uint256"
        },
        {
          "indexed": true,
          "internalType": "address",
          "name": "participant",
          "type": "address"
        },
        {
          "indexed": false,
          "internalType": "enum TicketEngine.AttemptResult",
          "name": "result",
          "type": "uint8"
        },
        {
          "indexed": false,
          "internalType": "uint256",
          "name": "timestamp",
          "type": "uint256"
        }
      ],
      "name": "AttemptRecorded",
      "type": "event"
    },
    {
      "anonymous": false,
      "inputs": [
        {
          "indexed": true,
          "internalType": "uint256",
          "name": "eventId",
          "type": "uint256"
        },
        {
          "indexed": false,
          "internalType": "string",
          "name": "title",
          "type": "string"
        },
        {
          "indexed": false,
          "internalType": "uint256",
          "name": "startTime",
          "type": "uint256"
        },
        {
          "indexed": false,
          "internalType": "uint256",
          "name": "totalTickets",
          "type": "uint256"
        },
        {
          "indexed": true,
          "internalType": "address",
          "name": "organizer",
          "type": "address"
        }
      ],
      "name": "EventCreated",
      "type": "event"
    },
    {
      "anonymous": false,
      "inputs": [
        {
          "indexed": true,
          "internalType": "uint256",
          "name": "eventId",
          "type": "uint256"
        }
      ],
      "name": "EventSoldOut",
      "type": "event"
    },
    {
      "anonymous": false,
      "inputs": [
        {
          "indexed": true,
          "internalType": "uint256",
          "name": "eventId",
          "type": "uint256"
        },
        {
          "indexed": true,
          "internalType": "uint256",
          "name": "ticketId",
          "type": "uint256"
        },
        {
          "indexed": true,
          "internalType": "address",
          "name": "participant",
          "type": "address"
        },
        {
          "indexed": false,
          "internalType": "uint256",
          "name": "remainingTickets",
          "type": "uint256"
        }
      ],
      "name": "TicketGrabbed",
      "type": "event"
    },
    {
      "anonymous": false,
      "inputs": [
        {
          "indexed": true,
          "internalType": "address",
          "name": "from",
          "type": "address"
        },
        {
          "indexed": true,
          "internalType": "address",
          "name": "to",
          "type": "address"
        },
        {
          "indexed": true,
          "internalType": "uint256",
          "name": "tokenId",
          "type": "uint256"
        }
      ],
      "name": "Transfer",
      "type": "event"
    },
    {
      "inputs": [
        {
          "internalType": "uint256",
          "name": "",
          "type": "uint256"
        }
      ],
      "name": "allEventIds",
      "outputs": [
        {
          "internalType": "uint256",
          "name": "",
          "type": "uint256"
        }
      ],
      "stateMutability": "view",
      "type": "function"
    },
    {
      "inputs": [
        {
          "internalType": "address",
          "name": "to",
          "type": "address"
        },
        {
          "internalType": "uint256",
          "name": "tokenId",
          "type": "uint256"
        }
      ],
      "name": "approve",
      "outputs": [],
      "stateMutability": "nonpayable",
      "type": "function"
    },
    {
      "inputs": [
        {
          "internalType": "address",
          "name": "owner",
          "type": "address"
        }
      ],
      "name": "balanceOf",
      "outputs": [
        {
          "internalType": "uint256",
          "name": "",
          "type": "uint256"
        }
      ],
      "stateMutability": "view",
      "type": "function"
    },
    {
      "inputs": [
        {
          "internalType": "string",
          "name": "_title",
          "type": "string"
        },
        {
          "internalType": "uint256",
          "name": "_startTime",
          "type": "uint256"
        },
        {
          "internalType": "uint256",
          "name": "_totalTickets",
          "type": "uint256"
        }
      ],
      "name": "createEvent",
      "outputs": [
        {
          "internalType": "uint256",
          "name": "eventId",
          "type": "uint256"
        }
      ],
      "stateMutability": "nonpayable",
      "type": "function"
    },
    {
      "inputs": [
        {
          "internalType": "uint256",
          "name": "",
          "type": "uint256"
        },
        {
          "internalType": "uint256",
          "name": "",
          "type": "uint256"
        }
      ],
      "name": "eventTickets",
      "outputs": [
        {
          "internalType": "uint256",
          "name": "",
          "type": "uint256"
        }
      ],
      "stateMutability": "view",
      "type": "function"
    },
    {
      "inputs": [
        {
          "internalType": "uint256",
          "name": "",
          "type": "uint256"
        }
      ],
      "name": "events",
      "outputs": [
        {
          "internalType": "uint256",
          "name": "id",
          "type": "uint256"
        },
        {
          "internalType": "string",
          "name": "title",
          "type": "string"
        },
        {
          "internalType": "uint256",
          "name": "startTime",
          "type": "uint256"
        },
        {
          "internalType": "uint256",
          "name": "totalTickets",
          "type": "uint256"
        },
        {
          "internalType": "uint256",
          "name": "remainingTickets",
          "type": "uint256"
        },
        {
          "internalType": "address",
          "name": "organizer",
          "type": "address"
        },
        {
          "internalType": "bool",
          "name": "exists",
          "type": "bool"
        }
      ],
      "stateMutability": "view",
      "type": "function"
    },
    {
      "inputs": [],
      "name": "getAllEventIds",
      "outputs": [
        {
          "internalType": "uint256[]",
          "name": "",
          "type": "uint256[]"
        }
      ],
      "stateMutability": "view",
      "type": "function"
    },
    {
      "inputs": [],
      "name": "getAllEvents",
      "outputs": [
        {
          "internalType": "uint256[]",
          "name": "ids",
          "type": "uint256[]"
        },
        {
          "internalType": "string[]",
          "name": "titles",
          "type": "string[]"
        },
        {
          "internalType": "uint256[]",
          "name": "startTimes",
          "type": "uint256[]"
        },
        {
          "internalType": "uint256[]",
          "name": "totalTicketCounts",
          "type": "uint256[]"
        },
        {
          "internalType": "uint256[]",
          "name": "remainingTicketCounts",
          "type": "uint256[]"
        },
        {
          "internalType": "address[]",
          "name": "organizers",
          "type": "address[]"
        }
      ],
      "stateMutability": "view",
      "type": "function"
    },
    {
      "inputs": [
        {
          "internalType": "uint256",
          "name": "tokenId",
          "type": "uint256"
        }
      ],
      "name": "getApproved",
      "outputs": [
        {
          "internalType": "address",
          "name": "",
          "type": "address"
        }
      ],
      "stateMutability": "view",
      "type": "function"
    },
    {
      "inputs": [
        {
          "internalType": "uint256",
          "name": "_eventId",
          "type": "uint256"
        }
      ],
      "name": "getEvent",
      "outputs": [
        {
          "internalType": "uint256",
          "name": "id",
          "type": "uint256"
        },
        {
          "internalType": "string",
          "name": "title",
          "type": "string"
        },
        {
          "internalType": "uint256",
          "name": "startTime",
          "type": "uint256"
        },
        {
          "internalType": "uint256",
          "name": "totalTickets",
          "type": "uint256"
        },
        {
          "internalType": "uint256",
          "name": "remainingTickets",
          "type": "uint256"
        },
        {
          "internalType": "address",
          "name": "organizer",
          "type": "address"
        },
        {
          "internalType": "enum TicketEngine.EventStatus",
          "name": "status",
          "type": "uint8"
        }
      ],
      "stateMutability": "view",
      "type": "function"
    },
    {
      "inputs": [
        {
          "internalType": "uint256",
          "name": "_eventId",
          "type": "uint256"
        }
      ],
      "name": "getEventStatus",
      "outputs": [
        {
          "internalType": "enum TicketEngine.EventStatus",
          "name": "",
          "type": "uint8"
        }
      ],
      "stateMutability": "view",
      "type": "function"
    },
    {
      "inputs": [
        {
          "internalType": "uint256",
          "name": "_eventId",
          "type": "uint256"
        },
        {
          "internalType": "uint256",
          "name": "_limit",
          "type": "uint256"
        }
      ],
      "name": "getRecentTickets",
      "outputs": [
        {
          "internalType": "uint256[]",
          "name": "ticketIds",
          "type": "uint256[]"
        },
        {
          "internalType": "address[]",
          "name": "owners",
          "type": "address[]"
        },
        {
          "internalType": "uint256[]",
          "name": "acquiredTimes",
          "type": "uint256[]"
        }
      ],
      "stateMutability": "view",
      "type": "function"
    },
    {
      "inputs": [
        {
          "internalType": "address",
          "name": "_user",
          "type": "address"
        }
      ],
      "name": "getUserAttempts",
      "outputs": [
        {
          "components": [
            {
              "internalType": "uint256",
              "name": "eventId",
              "type": "uint256"
            },
            {
              "internalType": "address",
              "name": "participant",
              "type": "address"
            },
            {
              "internalType": "uint256",
              "name": "timestamp",
              "type": "uint256"
            },
            {
              "internalType": "enum TicketEngine.AttemptResult",
              "name": "result",
              "type": "uint8"
            }
          ],
          "internalType": "struct TicketEngine.Attempt[]",
          "name": "",
          "type": "tuple[]"
        }
      ],
      "stateMutability": "view",
      "type": "function"
    },
    {
      "inputs": [
        {
          "internalType": "address",
          "name": "_user",
          "type": "address"
        }
      ],
      "name": "getUserTickets",
      "outputs": [
        {
          "internalType": "uint256[]",
          "name": "ticketIds",
          "type": "uint256[]"
        },
        {
          "internalType": "uint256[]",
          "name": "eventIds",
          "type": "uint256[]"
        },
        {
          "internalType": "string[]",
          "name": "eventTitles",
          "type": "string[]"
        },
        {
          "internalType": "uint256[]",
          "name": "acquiredTimes",
          "type": "uint256[]"
        }
      ],
      "stateMutability": "view",
      "type": "function"
    },
    {
      "inputs": [
        {
          "internalType": "uint256",
          "name": "_eventId",
          "type": "uint256"
        }
      ],
      "name": "grabTicket",
      "outputs": [
        {
          "internalType": "bool",
          "name": "success",
          "type": "bool"
        },
        {
          "internalType": "enum TicketEngine.AttemptResult",
          "name": "result",
          "type": "uint8"
        },
        {
          "internalType": "uint256",
          "name": "ticketId",
          "type": "uint256"
        }
      ],
      "stateMutability": "nonpayable",
      "type": "function"
    },
    {
      "inputs": [
        {
          "internalType": "uint256",
          "name": "",
          "type": "uint256"
        },
        {
          "internalType": "address",
          "name": "",
          "type": "address"
        }
      ],
      "name": "hasTicketForEvent",
      "outputs": [
        {
          "internalType": "bool",
          "name": "",
          "type": "bool"
        }
      ],
      "stateMutability": "view",
      "type": "function"
    },
    {
      "inputs": [
        {
          "internalType": "address",
          "name": "owner",
          "type": "address"
        },
        {
          "internalType": "address",
          "name": "operator",
          "type": "address"
        }
      ],
      "name": "isApprovedForAll",
      "outputs": [
        {
          "internalType": "bool",
          "name": "",
          "type": "bool"
        }
      ],
      "stateMutability": "view",
      "type": "function"
    },
    {
      "inputs": [],
      "name": "name",
      "outputs": [
        {
          "internalType": "string",
          "name": "",
          "type": "string"
        }
      ],
      "stateMutability": "view",
      "type": "function"
    },
    {
      "inputs": [],
      "name": "nextEventId",
      "outputs": [
        {
          "internalType": "uint256",
          "name": "",
          "type": "uint256"
        }
      ],
      "stateMutability": "view",
      "type": "function"
    },
    {
      "inputs": [],
      "name": "nextTicketId",
      "outputs": [
        {
          "internalType": "uint256",
          "name": "",
          "type": "uint256"
        }
      ],
      "stateMutability": "view",
      "type": "function"
    },
    {
      "inputs": [
        {
          "internalType": "uint256",
          "name": "tokenId",
          "type": "uint256"
        }
      ],
      "name": "ownerOf",
      "outputs": [
        {
          "internalType": "address",
          "name": "",
          "type": "address"
        }
      ],
      "stateMutability": "view",
      "type": "function"
    },
    {
      "inputs": [
        {
          "internalType": "address",
          "name": "from",
          "type": "address"
        },
        {
          "internalType": "address",
          "name": "to",
          "type": "address"
        },
        {
          "internalType": "uint256",
          "name": "tokenId",
          "type": "uint256"
        }
      ],
      "name": "safeTransferFrom",
      "outputs": [],
      "stateMutability": "nonpayable",
      "type": "function"
    },
    {
      "inputs": [
        {
          "internalType": "address",
          "name": "from",
          "type": "address"
        },
        {
          "internalType": "address",
          "name": "to",
          "type": "address"
        },
        {
          "internalType": "uint256",
          "name": "tokenId",
          "type": "uint256"
        },
        {
          "internalType": "bytes",
          "name": "data",
          "type": "bytes"
        }
      ],
      "name": "safeTransferFrom",
      "outputs": [],
      "stateMutability": "nonpayable",
      "type": "function"
    },
    {
      "inputs": [
        {
          "internalType": "address",
          "name": "operator",
          "type": "address"
        },
        {
          "internalType": "bool",
          "name": "approved",
          "type": "bool"
        }
      ],
      "name": "setApprovalForAll",
      "outputs": [],
      "stateMutability": "nonpayable",
      "type": "function"
    },
    {
      "inputs": [
        {
          "internalType": "bytes4",
          "name": "interfaceId",
          "type": "bytes4"
        }
      ],
      "name": "supportsInterface",
      "outputs": [
        {
          "internalType": "bool",
          "name": "",
          "type": "bool"
        }
      ],
      "stateMutability": "view",
      "type": "function"
    },
    {
      "inputs": [],
      "name": "symbol",
      "outputs": [
        {
          "internalType": "string",
          "name": "",
          "type": "string"
        }
      ],
      "stateMutability": "view",
      "type": "function"
    },
    {
      "inputs": [
        {
          "internalType": "uint256",
          "name": "",
          "type": "uint256"
        }
      ],
      "name": "tickets",
      "outputs": [
        {
          "internalType": "uint256",
          "name": "id",
          "type": "uint256"
        },
        {
          "internalType": "uint256",
          "name": "eventId",
          "type": "uint256"
        },
        {
          "internalType": "address",
          "name": "owner",
          "type": "address"
        },
        {
          "internalType": "uint256",
          "name": "acquiredAt",
          "type": "uint256"
        }
      ],
      "stateMutability": "view",
      "type": "function"
    },
    {
      "inputs": [
        {
          "internalType": "uint256",
          "name": "tokenId",
          "type": "uint256"
        }
      ],
      "name": "tokenURI",
      "outputs": [
        {
          "internalType": "string",
          "name": "",
          "type": "string"
        }
      ],
      "stateMutability": "view",
      "type": "function"
    },
    {
      "inputs": [
        {
          "internalType": "address",
          "name": "from",
          "type": "address"
        },
        {
          "internalType": "address",
          "name": "to",
          "type": "address"
        },
        {
          "internalType": "uint256",
          "name": "tokenId",
          "type": "uint256"
        }
      ],
      "name": "transferFrom",
      "outputs": [],
      "stateMutability": "nonpayable",
      "type": "function"
    },
    {
      "inputs": [
        {
          "internalType": "address",
          "name": "",
          "type": "address"
        },
        {
          "internalType": "uint256",
          "name": "",
          "type": "uint256"
        }
      ],
      "name": "userAttempts",
      "outputs": [
        {
          "internalType": "uint256",
          "name": "eventId",
          "type": "uint256"
        },
        {
          "internalType": "address",
          "name": "participant",
          "type": "address"
        },
        {
          "internalType": "uint256",
          "name": "timestamp",
          "type": "uint256"
        },
        {
          "internalType": "enum TicketEngine.AttemptResult",
          "name": "result",
          "type": "uint8"
        }
      ],
      "stateMutability": "view",
      "type": "function"
    },
    {
      "inputs": [
        {
          "internalType": "address",
          "name": "",
          "type": "address"
        },
        {
          "internalType": "uint256",
          "name": "",
          "type": "uint256"
        }
      ],
      "name": "userEvents",
      "outputs": [
        {
          "internalType": "uint256",
          "name": "",
          "type": "uint256"
        }
      ],
      "stateMutability": "view",
      "type": "function"
    },
    {
      "inputs": [
        {
          "internalType": "uint256",
          "name": "",
          "type": "uint256"
        },
        {
          "internalType": "address",
          "name": "",
          "type": "address"
        }
      ],
      "name": "userTicketForEvent",
      "outputs": [
        {
          "internalType": "uint256",
          "name": "",
          "type": "uint256"
        }
      ],
      "stateMutability": "view",
      "type": "function"
    }
  ],
  "transactionHash": "0xd7c3d7ca5e17375a353da5ac08a208b27bbbf793473ab7794d64e76258c876dc",
  "args": [],
  "numDeployments": 1,
  "solcInputHash": "878cba5ecddb646c29a641b302dd92c8",
  "bytecode": "0x6080604052600160075560016008553480156200001b57600080fd5b506040518060400160405280600c81526020016b5469636b6574456e67696e6560a01b81525060405180604001604052806006815260200165151250d2d15560d21b8152506001600081905550816001908162000079919062000136565b50600262000088828262000136565b50505062000202565b634e487b7160e01b600052604160045260246000fd5b600181811c90821680620000bc57607f821691505b602082108103620000dd57634e487b7160e01b600052602260045260246000fd5b50919050565b601f8211156200013157600081815260208120601f850160051c810160208610156200010c5750805b601f850160051c820191505b818110156200012d5782815560010162000118565b5050505b505050565b81516001600160401b0381111562000152576200015262000091565b6200016a81620001638454620000a7565b84620000e3565b602080601f831160018114620001a25760008415620001895750858301515b600019600386901b1c1916600185901b1785556200012d565b600085815260208120601f198616915b82811015620001d357888601518255948401946001909101908401620001b2565b5085821015620001f25787850151600019600388901b60f8161c191681555b5050505050600190811b01905550565b61361680620002126000396000f3fe608060405234801561001057600080fd5b50600436106101f05760003560e01c8063779cea771161010f578063c27a500d116100a2578063ce8a293911610071578063ce8a293914610521578063d0ed06a114610543578063e985e9c514610556578063fe15901e1461056957600080fd5b8063c27a500d146104a6578063c87b56dd146104c0578063ca98934d146104d3578063cbea18e51461050157600080fd5b8063a22cb465116100de578063a22cb46514610442578063a49f79c014610455578063b88d4fde14610480578063bdfc98931461049357600080fd5b8063779cea771461040b57806395d89b411461041e5780639e9580f6146104265780639f9d903a1461043957600080fd5b806342842e0e116101875780636352211e116101565780636352211e146103aa578063682e54cd146103bd5780636d1884e0146103d257806370a08231146103f857600080fd5b806342842e0e146102ee5780634ee8a3a71461030157806350b44712146103235780636031a52f1461039357600080fd5b8063095ea7b3116101c3578063095ea7b3146102805780630b7914301461029557806323b872dd146102bb5780633dcec13e146102ce57600080fd5b806301ffc9a7146101f55780630484a22f1461021d57806306fdde0314610240578063081812fc14610255575b600080fd5b61020861020336600461279a565b61058c565b60405190151581526020015b60405180910390f35b61023061022b3660046127da565b6105de565b60405161021494939291906128d8565b6102486108bb565b6040516102149190612930565b610268610263366004612943565b61094d565b6040516001600160a01b039091168152602001610214565b61029361028e36600461295c565b610976565b005b6102a86102a3366004612943565b610985565b6040516102149796959493929190612986565b6102936102c93660046129d4565b610a58565b6102e16102dc366004612943565b610ae8565b6040516102149190612a3a565b6102936102fc3660046129d4565b610b54565b61031461030f366004612a48565b610b74565b60405161021493929190612aa3565b610364610331366004612943565b600a602052600090815260409020805460018201546002830154600390930154919290916001600160a01b039091169084565b604051610214949392919093845260208401929092526001600160a01b03166040830152606082015260800190565b61039c60085481565b604051908152602001610214565b6102686103b8366004612943565b610d65565b6103c5610d70565b6040516102149190612adc565b6103e56103e0366004612943565b610dc7565b6040516102149796959493929190612aef565b61039c6104063660046127da565b610ee3565b61039c610419366004612a48565b610f2b565b610248610f5c565b61039c610434366004612b47565b610f6b565b61039c60075481565b610293610450366004612bc5565b6111d0565b61039c610463366004612c01565b600c60209081526000928352604080842090915290825290205481565b61029361048e366004612c43565b6111db565b61039c6104a136600461295c565b6111f2565b6104ae61120e565b60405161021496959493929190612d1e565b6102486104ce366004612943565b611591565b6102086104e1366004612c01565b600b60209081526000928352604080842090915290825290205460ff1681565b61051461050f3660046127da565b61178e565b6040516102149190612db0565b61053461052f366004612943565b61185e565b60405161021493929190612e29565b61039c610551366004612943565b611ac2565b610208610564366004612e4d565b611ae3565b61057c61057736600461295c565b611b11565b6040516102149493929190612e77565b60006001600160e01b031982166380ac58cd60e01b14806105bd57506001600160e01b03198216635b5e139f60e01b145b806105d857506301ffc9a760e01b6001600160e01b03198316145b92915050565b6001600160a01b0381166000908152600e602052604090208054606091829182918291806001600160401b0381111561061957610619612c2d565b604051908082528060200260200182016040528015610642578160200160208202803683370190505b509550806001600160401b0381111561065d5761065d612c2d565b604051908082528060200260200182016040528015610686578160200160208202803683370190505b509450806001600160401b038111156106a1576106a1612c2d565b6040519080825280602002602001820160405280156106d457816020015b60608152602001906001900390816106bf5790505b509350806001600160401b038111156106ef576106ef612c2d565b604051908082528060200260200182016040528015610718578160200160208202803683370190505b50925060005b818110156108b157600083828154811061073a5761073a612eaa565b6000918252602080832090910154808352600c825260408084206001600160a01b038e16855290925291205489519192509081908a908590811061078057610780612eaa565b6020026020010181815250508188848151811061079f5761079f612eaa565b6020026020010181815250506009600083815260200190815260200160002060010180546107cc90612ec0565b80601f01602080910402602001604051908101604052809291908181526020018280546107f890612ec0565b80156108455780601f1061081a57610100808354040283529160200191610845565b820191906000526020600020905b81548152906001019060200180831161082857829003601f168201915b505050505087848151811061085c5761085c612eaa565b6020026020010181905250600a60008281526020019081526020016000206003015486848151811061089057610890612eaa565b602002602001018181525050505080806108a990612f10565b91505061071e565b5050509193509193565b6060600180546108ca90612ec0565b80601f01602080910402602001604051908101604052809291908181526020018280546108f690612ec0565b80156109435780601f1061091857610100808354040283529160200191610943565b820191906000526020600020905b81548152906001019060200180831161092657829003601f168201915b5050505050905090565b600061095882611b63565b506000828152600560205260409020546001600160a01b03166105d8565b610981828233611b9c565b5050565b600960205260009081526040902080546001820180549192916109a790612ec0565b80601f01602080910402602001604051908101604052809291908181526020018280546109d390612ec0565b8015610a205780601f106109f557610100808354040283529160200191610a20565b820191906000526020600020905b815481529060010190602001808311610a0357829003601f168201915b50505050600283015460038401546004850154600590950154939491939092506001600160a01b03811690600160a01b900460ff1687565b6001600160a01b038216610a8757604051633250574960e11b8152600060048201526024015b60405180910390fd5b6000610a94838333611ba9565b9050836001600160a01b0316816001600160a01b031614610ae2576040516364283d7b60e01b81526001600160a01b0380861660048301526024820184905282166044820152606401610a7e565b50505050565b60008181526009602052604081206005810154600160a01b900460ff16610b215760405162461bcd60e51b8152600401610a7e90612f29565b8060020154421015610b365750600092915050565b8060040154600003610b4b5750600292915050565b50600192915050565b610b6f838383604051806020016040528060008152506111db565b505050565b6000828152600d602052604081208054606092839283929091868210610b9a5786610b9c565b815b9050806001600160401b03811115610bb657610bb6612c2d565b604051908082528060200260200182016040528015610bdf578160200160208202803683370190505b509550806001600160401b03811115610bfa57610bfa612c2d565b604051908082528060200260200182016040528015610c23578160200160208202803683370190505b509450806001600160401b03811115610c3e57610c3e612c2d565b604051908082528060200260200182016040528015610c67578160200160208202803683370190505b50935060005b81811015610d5a5760008482610c84600187612f57565b610c8e9190612f57565b81548110610c9e57610c9e612eaa565b9060005260206000200154905080888381518110610cbe57610cbe612eaa565b6020908102919091018101919091526000828152600a909152604090206002015487516001600160a01b0390911690889084908110610cff57610cff612eaa565b6001600160a01b039092166020928302919091018201526000828152600a90915260409020600301548651879084908110610d3c57610d3c612eaa565b60209081029190910101525080610d5281612f10565b915050610c6d565b505050509250925092565b60006105d882611b63565b6060601080548060200260200160405190810160405280929190818152602001828054801561094357602002820191906000526020600020905b815481526020019060010190808311610daa575050505050905090565b6000818152600960205260408120600581015460609183918291829182918291600160a01b900460ff16610e0d5760405162461bcd60e51b8152600401610a7e90612f29565b8054600282015460038301546004840154600585015460018601939291906001600160a01b0316610e3d8f610ae8565b858054610e4990612ec0565b80601f0160208091040260200160405190810160405280929190818152602001828054610e7590612ec0565b8015610ec25780601f10610e9757610100808354040283529160200191610ec2565b820191906000526020600020905b815481529060010190602001808311610ea557829003601f168201915b50505050509550975097509750975097509750975050919395979092949650565b60006001600160a01b038216610f0f576040516322718ad960e21b815260006004820152602401610a7e565b506001600160a01b031660009081526004602052604090205490565b600d6020528160005260406000208181548110610f4757600080fd5b90600052602060002001600091509150505481565b6060600280546108ca90612ec0565b600083610fb25760405162461bcd60e51b81526020600482015260156024820152745469746c652063616e6e6f7420626520656d70747960581b6044820152606401610a7e565b600082116110025760405162461bcd60e51b815260206004820152601b60248201527f4d7573742068617665206174206c656173742031207469636b657400000000006044820152606401610a7e565b4283116110515760405162461bcd60e51b815260206004820152601c60248201527f53746172742074696d65206d75737420626520696e20667574757265000000006044820152606401610a7e565b6007805490600061106183612f10565b9190505590506040518060e0016040528082815260200186868080601f01602080910402602001604051908101604052809392919081815260200183838082843760009201829052509385525050506020808301879052604080840187905260608401879052336080850152600160a090940184905285835260098252909120835181559083015190918201906110f89082612fb8565b506040828101516002830155606083015160038301556080830151600483015560a08301516005909201805460c0909401511515600160a01b026001600160a81b03199094166001600160a01b0390931692909217929092179055601080546001810182556000919091527f1b6847dc741a1b0cd08d278845f9d819d87b734759afb55fe2de5cb82a9ae6720182905551339082907f818cdd1d6860d493731be2106680d34811f56c9ed9d66dbf56a7c2dcc59c9be5906111c0908990899089908990613077565b60405180910390a3949350505050565b610981338383611ca2565b6111e6848484610a58565b610ae284848484611d42565b600e6020528160005260406000208181548110610f4757600080fd5b60608060608060608060006010805490509050806001600160401b0381111561123957611239612c2d565b604051908082528060200260200182016040528015611262578160200160208202803683370190505b509650806001600160401b0381111561127d5761127d612c2d565b6040519080825280602002602001820160405280156112b057816020015b606081526020019060019003908161129b5790505b509550806001600160401b038111156112cb576112cb612c2d565b6040519080825280602002602001820160405280156112f4578160200160208202803683370190505b509450806001600160401b0381111561130f5761130f612c2d565b604051908082528060200260200182016040528015611338578160200160208202803683370190505b509350806001600160401b0381111561135357611353612c2d565b60405190808252806020026020018201604052801561137c578160200160208202803683370190505b509250806001600160401b0381111561139757611397612c2d565b6040519080825280602002602001820160405280156113c0578160200160208202803683370190505b50915060005b8181101561158757600060096000601084815481106113e7576113e7612eaa565b906000526020600020015481526020019081526020016000209050806000015489838151811061141957611419612eaa565b60200260200101818152505080600101805461143490612ec0565b80601f016020809104026020016040519081016040528092919081815260200182805461146090612ec0565b80156114ad5780601f10611482576101008083540402835291602001916114ad565b820191906000526020600020905b81548152906001019060200180831161149057829003601f168201915b50505050508883815181106114c4576114c4612eaa565b602002602001018190525080600201548783815181106114e6576114e6612eaa565b602002602001018181525050806003015486838151811061150957611509612eaa565b602002602001018181525050806004015485838151811061152c5761152c612eaa565b6020908102919091010152600581015484516001600160a01b039091169085908490811061155c5761155c612eaa565b6001600160a01b0390921660209283029190910190910152508061157f81612f10565b9150506113c6565b5050909192939495565b6000818152600a6020526040812054606091036115e75760405162461bcd60e51b8152602060048201526014602482015273151bdad95b88191bd95cc81b9bdd08195e1a5cdd60621b6044820152606401610a7e565b6000828152600a602090815260408083206001808201548552600990935290832090929091820161161786611e6b565b8360010160405160200161162d9392919061312a565b6040516020818303038152906040529050600061164d8460010154611e6b565b61165687611e6b565b6040516020016116679291906131b6565b6040516020818303038152906040529050600061171084600101805461168c90612ec0565b80601f01602080910402602001604051908101604052809291908181526020018280546116b890612ec0565b80156117055780601f106116da57610100808354040283529160200191611705565b820191906000526020600020905b8154815290600101906020018083116116e857829003601f168201915b505050505088611efd565b6040516020016117209190613283565b60405160208183030381529060405290506000838383604051602001611748939291906132e0565b6040516020818303038152906040529050611762816121e8565b6040516020016117729190613323565b6040516020818303038152906040529650505050505050919050565b6001600160a01b0381166000908152600f60209081526040808320805482518185028101850190935280835260609492939192909184015b8282101561185357600084815260209081902060408051608081018252600486029092018054835260018101546001600160a01b031693830193909352600283015490820152600380830154919291606084019160ff9091169081111561182f5761182f612a10565b600381111561184057611840612a10565b81525050815260200190600101906117c6565b505050509050919050565b600080600061186b612347565b60008481526009602052604090206005810154600160a01b900460ff166118a45760405162461bcd60e51b8152600401610a7e90612f29565b80600201544210156118cb57600392506118be8584612371565b5060009250829050611ab1565b6000858152600b6020908152604080832033845290915290205460ff16156118fb57600192506118be8584612371565b806004015460000361191557600292506118be8584612371565b6008805490600061192583612f10565b90915550600482018054919350600061193d83613368565b90915550506040805160808101825283815260208082018881523383850181815242606086019081526000898152600a865287812096518755935160018088019190915591516002870180546001600160a01b0319166001600160a01b0390921691909117905551600390950194909455898252600b83528482208183528352848220805460ff191685179055898252600c83528482208183528352848220879055898252600d83528482208054808601825590835283832001879055808252600e83529381208054938401815581522001869055611a1c9083612474565b60009250611a2a8584612371565b336001600160a01b031682867f1e49d6cdc9fa4c612e2049322ef8c00f329963fac689ba1653bd01f9cb4f66c48460040154604051611a6b91815260200190565b60405180910390a48060040154600003611aab5760405185907f0291e1cc6c7c1e2da2aea38a16b02b5f1e5239aa57f4295520fa6ae5ad6b944d90600090a25b60019350505b611abb6001600055565b9193909250565b60108181548110611ad257600080fd5b600091825260209091200154905081565b6001600160a01b03918216600090815260066020908152604080832093909416825291909152205460ff1690565b600f6020528160005260406000208181548110611b2d57600080fd5b600091825260209091206004909102018054600182015460028301546003909301549194506001600160a01b0316925060ff1684565b6000818152600360205260408120546001600160a01b0316806105d857604051637e27328960e01b815260048101849052602401610a7e565b610b6f83838360016124d9565b6000828152600360205260408120546001600160a01b0390811690831615611bd657611bd68184866125df565b6001600160a01b03811615611c1457611bf36000856000806124d9565b6001600160a01b038116600090815260046020526040902080546000190190555b6001600160a01b03851615611c43576001600160a01b0385166000908152600460205260409020805460010190555b60008481526003602052604080822080546001600160a01b0319166001600160a01b0389811691821790925591518793918516917fddf252ad1be2c89b69c2b068fc378daa952ba7f163c4a11628f55a4df523b3ef91a4949350505050565b6001600160a01b038216611cd457604051630b61174360e31b81526001600160a01b0383166004820152602401610a7e565b6001600160a01b03838116600081815260066020908152604080832094871680845294825291829020805460ff191686151590811790915591519182527f17307eab39ab6107e8899845ad3d59bd9653f200f220920489ca2b5937696c3191015b60405180910390a3505050565b6001600160a01b0383163b15610ae257604051630a85bd0160e11b81526001600160a01b0384169063150b7a0290611d8490339088908790879060040161337f565b6020604051808303816000875af1925050508015611dbf575060408051601f3d908101601f19168201909252611dbc918101906133b2565b60015b611e28573d808015611ded576040519150601f19603f3d011682016040523d82523d6000602084013e611df2565b606091505b508051600003611e2057604051633250574960e11b81526001600160a01b0385166004820152602401610a7e565b805181602001fd5b6001600160e01b03198116630a85bd0160e11b14611e6457604051633250574960e11b81526001600160a01b0385166004820152602401610a7e565b5050505050565b60606000611e7883612643565b60010190506000816001600160401b03811115611e9757611e97612c2d565b6040519080825280601f01601f191660200182016040528015611ec1576020820181803683370190505b5090508181016020015b600019016f181899199a1a9b1b9c1cb0b131b232b360811b600a86061a8153600a8504945084611ecb57509392505050565b6060600060405160200161206f907f3c73766720786d6c6e733d22687474703a2f2f7777772e77332e6f72672f323081527f30302f737667222077696474683d2233353022206865696768743d223230302260208201527f2076696577426f783d223020302033353020323030223e00000000000000000060408201527f3c646566733e3c6c696e6561724772616469656e742069643d2267222078313d60578201527f223025222079313d223025222078323d2231303025222079323d2231303025226077820152601f60f91b60978201527f3c73746f70206f66667365743d22302522207374796c653d2273746f702d636f60988201527f6c6f723a23384235434636222f3e3c73746f70206f66667365743d223130302560b88201527f22207374796c653d2273746f702d636f6c6f723a23363336364631222f3e000060d88201527f3c2f6c696e6561724772616469656e743e3c2f646566733e000000000000000060f682015261010e0190565b60405160208183030381529060405290506000604051602001612173907f3c726563742077696474683d2233353022206865696768743d2232303022207281527f783d223136222066696c6c3d2275726c28236729222f3e00000000000000000060208201527f3c7465787420783d223137352220793d2234302220746578742d616e63686f7260378201527f3d226d6964646c65222066696c6c3d2277686974652220666f6e742d73697a6560578201527f3d2231342220666f6e742d66616d696c793d2273616e732d736572696622206f60778201527f7061636974793d22302e38223e5449434b45543c2f746578743e000000000000609782015260b10190565b604051602081830303815290604052905060008561219086611e6b565b6040516020016121a19291906133cf565b60405160208183030381529060405290506121de8383836040516020016121ca939291906132e0565b6040516020818303038152906040526121e8565b9695505050505050565b6060815160000361220757505060408051602081019091526000815290565b60006040518060600160405280604081526020016135a160409139905060006003845160026122369190613539565b612240919061354c565b61224b90600461356e565b6001600160401b0381111561226257612262612c2d565b6040519080825280601f01601f19166020018201604052801561228c576020820181803683370190505b50905060018201602082018586518701602081018051600082525b82841015612302576003840193508351603f8160121c168701518653600186019550603f81600c1c168701518653600186019550603f8160061c168701518653600186019550603f81168701518653506001850194506122a7565b905250508551600390066001811461232157600281146123345761233c565b603d6001830353603d600283035361233c565b603d60018303535b509195945050505050565b60026000540361236a57604051633ee5aeb560e01b815260040160405180910390fd5b6002600055565b60006040518060800160405280848152602001336001600160a01b031681526020014281526020018360038111156123ab576123ab612a10565b9052336000908152600f602090815260408083208054600180820183559185529383902085516004909502019384559184015183830180546001600160a01b0319166001600160a01b03909216919091179055830151600283015560608301516003808401805495965086959293909260ff191691849081111561243157612431612a10565b02179055505050336001600160a01b0316837fa92c889b3de9d67131aae60eb373e2c631fce7bdeb9e0a9668416ff51a4003338442604051611d35929190613585565b6001600160a01b03821661249e57604051633250574960e11b815260006004820152602401610a7e565b60006124ac83836000611ba9565b90506001600160a01b03811615610b6f576040516339e3563760e11b815260006004820152602401610a7e565b80806124ed57506001600160a01b03821615155b156125af5760006124fd84611b63565b90506001600160a01b038316158015906125295750826001600160a01b0316816001600160a01b031614155b801561253c575061253a8184611ae3565b155b156125655760405163a9fbf51f60e01b81526001600160a01b0384166004820152602401610a7e565b81156125ad5783856001600160a01b0316826001600160a01b03167f8c5be1e5ebec7d5bd14f71427d1e84f3dd0314c0f7b2291e5b200ac8c7c3b92560405160405180910390a45b505b5050600090815260056020526040902080546001600160a01b0319166001600160a01b0392909216919091179055565b6125ea83838361271b565b610b6f576001600160a01b03831661261857604051637e27328960e01b815260048101829052602401610a7e565b60405163177e802f60e01b81526001600160a01b038316600482015260248101829052604401610a7e565b60008072184f03e93ff9f4daa797ed6e38ed64bf6a1f0160401b83106126825772184f03e93ff9f4daa797ed6e38ed64bf6a1f0160401b830492506040015b6d04ee2d6d415b85acef810000000083106126ae576d04ee2d6d415b85acef8100000000830492506020015b662386f26fc1000083106126cc57662386f26fc10000830492506010015b6305f5e10083106126e4576305f5e100830492506008015b61271083106126f857612710830492506004015b6064831061270a576064830492506002015b600a83106105d85760010192915050565b60006001600160a01b038316158015906127795750826001600160a01b0316846001600160a01b0316148061275557506127558484611ae3565b8061277957506000828152600560205260409020546001600160a01b038481169116145b949350505050565b6001600160e01b03198116811461279757600080fd5b50565b6000602082840312156127ac57600080fd5b81356127b781612781565b9392505050565b80356001600160a01b03811681146127d557600080fd5b919050565b6000602082840312156127ec57600080fd5b6127b7826127be565b600081518084526020808501945080840160005b8381101561282557815187529582019590820190600101612809565b509495945050505050565b60005b8381101561284b578181015183820152602001612833565b50506000910152565b6000815180845261286c816020860160208601612830565b601f01601f19169290920160200192915050565b600082825180855260208086019550808260051b84010181860160005b848110156128cb57601f198684030189526128b9838351612854565b9884019892509083019060010161289d565b5090979650505050505050565b6080815260006128eb60808301876127f5565b82810360208401526128fd81876127f5565b905082810360408401526129118186612880565b9050828103606084015261292581856127f5565b979650505050505050565b6020815260006127b76020830184612854565b60006020828403121561295557600080fd5b5035919050565b6000806040838503121561296f57600080fd5b612978836127be565b946020939093013593505050565b87815260e06020820152600061299f60e0830189612854565b604083019790975250606081019490945260808401929092526001600160a01b031660a0830152151560c09091015292915050565b6000806000606084860312156129e957600080fd5b6129f2846127be565b9250612a00602085016127be565b9150604084013590509250925092565b634e487b7160e01b600052602160045260246000fd5b60038110612a3657612a36612a10565b9052565b602081016105d88284612a26565b60008060408385031215612a5b57600080fd5b50508035926020909101359150565b600081518084526020808501945080840160005b838110156128255781516001600160a01b031687529582019590820190600101612a7e565b606081526000612ab660608301866127f5565b8281036020840152612ac88186612a6a565b905082810360408401526121de81856127f5565b6020815260006127b760208301846127f5565b87815260e060208201526000612b0860e0830189612854565b6040830188905260608301879052608083018690526001600160a01b03851660a08401529050612b3b60c0830184612a26565b98975050505050505050565b60008060008060608587031215612b5d57600080fd5b84356001600160401b0380821115612b7457600080fd5b818701915087601f830112612b8857600080fd5b813581811115612b9757600080fd5b886020828501011115612ba957600080fd5b6020928301999098509187013596604001359550909350505050565b60008060408385031215612bd857600080fd5b612be1836127be565b915060208301358015158114612bf657600080fd5b809150509250929050565b60008060408385031215612c1457600080fd5b82359150612c24602084016127be565b90509250929050565b634e487b7160e01b600052604160045260246000fd5b60008060008060808587031215612c5957600080fd5b612c62856127be565b9350612c70602086016127be565b92506040850135915060608501356001600160401b0380821115612c9357600080fd5b818701915087601f830112612ca757600080fd5b813581811115612cb957612cb9612c2d565b604051601f8201601f19908116603f01168101908382118183101715612ce157612ce1612c2d565b816040528281528a6020848701011115612cfa57600080fd5b82602086016020830137600060208483010152809550505050505092959194509250565b60c081526000612d3160c08301896127f5565b8281036020840152612d438189612880565b90508281036040840152612d5781886127f5565b90508281036060840152612d6b81876127f5565b90508281036080840152612d7f81866127f5565b905082810360a0840152612d938185612a6a565b9998505050505050505050565b60048110612a3657612a36612a10565b602080825282518282018190526000919060409081850190868401855b82811015612e1c57815180518552868101516001600160a01b031687860152858101518686015260609081015190612e0781870183612da0565b50506080939093019290850190600101612dcd565b5091979650505050505050565b831515815260608101612e3f6020830185612da0565b826040830152949350505050565b60008060408385031215612e6057600080fd5b612e69836127be565b9150612c24602084016127be565b8481526001600160a01b03841660208201526040810183905260808101612ea16060830184612da0565b95945050505050565b634e487b7160e01b600052603260045260246000fd5b600181811c90821680612ed457607f821691505b602082108103612ef457634e487b7160e01b600052602260045260246000fd5b50919050565b634e487b7160e01b600052601160045260246000fd5b600060018201612f2257612f22612efa565b5060010190565b602080825260149082015273115d995b9d08191bd95cc81b9bdd08195e1a5cdd60621b604082015260600190565b818103818111156105d8576105d8612efa565b601f821115610b6f57600081815260208120601f850160051c81016020861015612f915750805b601f850160051c820191505b81811015612fb057828155600101612f9d565b505050505050565b81516001600160401b03811115612fd157612fd1612c2d565b612fe581612fdf8454612ec0565b84612f6a565b602080601f83116001811461301a57600084156130025750858301515b600019600386901b1c1916600185901b178555612fb0565b600085815260208120601f198616915b828110156130495788860151825594840194600190910190840161302a565b50858210156130675787850151600019600388901b60f8161c191681555b5050505050600190811b01905550565b606081528360608201528385608083013760006080858301015260006080601f19601f870116830101905083602083015282604083015295945050505050565b600081546130c481612ec0565b600182811680156130dc57600181146130f157613120565b60ff1984168752821515830287019450613120565b8560005260208060002060005b858110156131175781548a8201529084019082016130fe565b50505082870194505b5050505092915050565b683d913730b6b2911d1160b91b8152600061314860098301866130b7565b61202360f01b81528451613163816002840160208901612830565b61088b60f21b9101600281018290527f226465736372697074696f6e223a224576656e74207469636b657420666f72206004820152906131a660248301866130b7565b9081526002019695505050505050565b6d2261747472696275746573223a5b60901b81527f7b2274726169745f74797065223a224576656e74204944222c2276616c756522600e820152611d1160f11b602e8201528251600090613211816030850160208801612830565b62089f4b60ea1b6030918401918201527f7b2274726169745f74797065223a225469636b6574204944222c2276616c7565603382015262111d1160e91b60538201528351613266816056840160208801612830565b63089f574b60e21b60569290910191820152605a01949350505050565b7f22696d616765223a22646174613a696d6167652f7376672b786d6c3b626173658152620d8d0b60ea1b6020820152600082516132c7816023850160208701612830565b61227d60f01b6023939091019283015250602501919050565b600084516132f2818460208901612830565b845190830190613306818360208901612830565b8451910190613319818360208801612830565b0195945050505050565b7f646174613a6170706c69636174696f6e2f6a736f6e3b6261736536342c00000081526000825161335b81601d850160208701612830565b91909101601d0192915050565b60008161337757613377612efa565b506000190190565b6001600160a01b03858116825284166020820152604081018390526080606082018190526000906121de90830184612854565b6000602082840312156133c457600080fd5b81516127b781612781565b7f3c7465787420783d223137352220793d223130302220746578742d616e63686f815260007f723d226d6964646c65222066696c6c3d2277686974652220666f6e742d73697a8060208401527f653d2232302220666f6e742d66616d696c793d2273616e732d736572696622206040840152723337b73a16bbb2b4b3b43a1e913137b632111f60691b60608401528451613470816073860160208901612830565b661e17ba32bc3a1f60c91b6073918501918201527f3c7465787420783d223137352220793d223136302220746578742d616e63686f607a820152609a8101919091527f653d2233322220666f6e742d66616d696c793d226d6f6e6f737061636522206660ba820152726f6e742d7765696768743d22626f6c64223e2360681b60da8201528351906135088260ed830160208801612830565b6121de61352760ed84840101661e17ba32bc3a1f60c91b815260070190565b651e17b9bb339f60d11b815260060190565b808201808211156105d8576105d8612efa565b60008261356957634e487b7160e01b600052601260045260246000fd5b500490565b80820281158282048414176105d8576105d8612efa565b604081016135938285612da0565b826020830152939250505056fe4142434445464748494a4b4c4d4e4f505152535455565758595a6162636465666768696a6b6c6d6e6f707172737475767778797a303132333435363738392b2fa26469706673582212200534efd4cebff3a5c54e68df01c5d8ffab155546d44e272c6bf48276f5a97bf164736f6c63430008140033",
  "devdoc": {
    "details": "Now implements ERC721 for NFT tickets viewable in wallets",
    "errors": {
      "ERC721IncorrectOwner(address,uint256,address)": [
        {
          "details": "Indicates an error related to the ownership over a particular token. Used in transfers.",
          "params": {
            "owner": "Address of the current owner of a token.",
            "sender": "Address whose tokens are being transferred.",
            "tokenId": "Identifier number of a token."
          }
        }
      ],
      "ERC721InsufficientApproval(address,uint256)": [
        {
          "details": "Indicates a failure with the `operator`s approval. Used in transfers.",
          "params": {
            "operator": "Address that may be allowed to operate on tokens without being their owner.",
            "tokenId": "Identifier number of a token."
          }
        }
      ],
      "ERC721InvalidApprover(address)": [
        {
          "details": "Indicates a failure with the `approver` of a token to be approved. Used in approvals.",
          "params": {
            "approver": "Address initiating an approval operation."
          }
        }
      ],
      "ERC721InvalidOperator(address)": [
        {
          "details": "Indicates a failure with the `operator` to be approved. Used in approvals.",
          "params": {
            "operator": "Address that may be allowed to operate on tokens without being their owner."
          }
        }
      ],
      "ERC721InvalidOwner(address)": [
        {
          "details": "Indicates that an address can't be an owner. For example, `address(0)` is a forbidden owner in EIP-20. Used in balance queries.",
          "params": {
            "owner": "Address of the current owner of a token."
          }
        }
      ],
      "ERC721InvalidReceiver(address)": [
        {
          "details": "Indicates a failure with the token `receiver`. Used in transfers.",
          "params": {
            "receiver": "Address to which tokens are being transferred."
          }
        }
      ],
      "ERC721InvalidSender(address)": [
        {
          "details": "Indicates a failure with the token `sender`. Used in transfers.",
          "params": {
            "sender": "Address whose tokens are being transferred."
          }
        }
      ],
      "ERC721NonexistentToken(uint256)": [
        {
          "details": "Indicates a `tokenId` whose `owner` is the zero address.",
          "params": {
            "tokenId": "Identifier number of a token."
          }
        }
      ],
      "ReentrancyGuardReentrantCall()": [
        {
          "details": "Unauthorized reentrant call."
        }
      ]
    },
    "events": {
      "Approval(address,address,uint256)": {
        "details": "Emitted when `owner` enables `approved` to manage the `tokenId` token."
      },
      "ApprovalForAll(address,address,bool)": {
        "details": "Emitted when `owner` enables or disables (`approved`) `operator` to manage all of its assets."
      },
      "Transfer(address,address,uint256)": {
        "details": "Emitted when `tokenId` token is transferred from `from` to `to`."
      }
    },
    "kind": "dev",
    "methods": {
      "approve(address,uint256)": {
        "details": "See {IERC721-approve}."
      },
      "balanceOf(address)": {
        "details": "See {IERC721-balanceOf}."
      },
      "createEvent(string,uint256,uint256)": {
        "params": {
          "_startTime": "Unix timestamp when grabbing starts",
          "_title": "Event title",
          "_totalTickets": "Total number of tickets available"
        }
      },
      "getApproved(uint256)": {
        "details": "See {IERC721-getApproved}."
      },
      "grabTicket(uint256)": {
        "params": {
          "_eventId": "The event to grab a ticket for"
        },
        "returns": {
          "result": "The result of the attempt",
          "success": "Whether the grab was successful",
          "ticketId": "The ticket ID if successful (0 if failed)"
        }
      },
      "isApprovedForAll(address,address)": {
        "details": "See {IERC721-isApprovedForAll}."
      },
      "name()": {
        "details": "See {IERC721Metadata-name}."
      },
      "ownerOf(uint256)": {
        "details": "See {IERC721-ownerOf}."
      },
      "safeTransferFrom(address,address,uint256)": {
        "details": "See {IERC721-safeTransferFrom}."
      },
      "safeTransferFrom(address,address,uint256,bytes)": {
        "details": "See {IERC721-safeTransferFrom}."
      },
      "setApprovalForAll(address,bool)": {
        "details": "See {IERC721-setApprovalForAll}."
      },
      "supportsInterface(bytes4)": {
        "details": "See {IERC165-supportsInterface}."
      },
      "symbol()": {
        "details": "See {IERC721Metadata-symbol}."
      },
      "tokenURI(uint256)": {
        "details": "Generates on-chain metadata with event info"
      },
      "transferFrom(address,address,uint256)": {
        "details": "See {IERC721-transferFrom}."
      }
    },
    "title": "TicketEngine",
    "version": 1
  },
  "userdoc": {
    "kind": "user",
    "methods": {
      "createEvent(string,uint256,uint256)": {
        "notice": "Create a new ticket event"
      },
      "grabTicket(uint256)": {
        "notice": "Attempt to grab a ticket for an event"
      },
      "tokenURI(uint256)": {
        "notice": "Returns the token URI for a given ticket NFT"
      }
    },
    "notice": "MVP ticket allocation engine - first-come-first-served with 1 ticket per user limit",
    "version": 1
  },
  "storageLayout": {
    "storage": [
      {
        "astId": 1396,
        "contract": "contracts/TicketEngine.sol:TicketEngine",
        "label": "_status",
        "offset": 0,
        "slot": "0",
        "type": "t_uint256"
      },
      {
        "astId": 169,
        "contract": "contracts/TicketEngine.sol:TicketEngine",
        "label": "_name",
        "offset": 0,
        "slot": "1",
        "type": "t_string_storage"
      },
      {
        "astId": 171,
        "contract": "contracts/TicketEngine.sol:TicketEngine",
        "label": "_symbol",
        "offset": 0,
        "slot": "2",
        "type": "t_string_storage"
      },
      {
        "astId": 175,
        "contract": "contracts/TicketEngine.sol:TicketEngine",
        "label": "_owners",
        "offset": 0,
        "slot": "3",
        "type": "t_mapping(t_uint256,t_address)"
      },
      {
        "astId": 179,
        "contract": "contracts/TicketEngine.sol:TicketEngine",
        "label": "_balances",
        "offset": 0,
        "slot": "4",
        "type": "t_mapping(t_address,t_uint256)"
      },
      {
        "astId": 183,
        "contract": "contracts/TicketEngine.sol:TicketEngine",
        "label": "_tokenApprovals",
        "offset": 0,
        "slot": "5",
        "type": "t_mapping(t_uint256,t_address)"
      },
      {
        "astId": 189,
        "contract": "contracts/TicketEngine.sol:TicketEngine",
        "label": "_operatorApprovals",
        "offset": 0,
        "slot": "6",
        "type": "t_mapping(t_address,t_mapping(t_address,t_bool))"
      },
      {
        "astId": 2964,
        "contract": "contracts/TicketEngine.sol:TicketEngine",
        "label": "nextEventId",
        "offset": 0,
        "slot": "7",
        "type": "t_uint256"
      },
      {
        "astId": 2967,
        "contract": "contracts/TicketEngine.sol:TicketEngine",
        "label": "nextTicketId",
        "offset": 0,
        "slot": "8",
        "type": "t_uint256"
      },
      {
        "astId": 2972,
        "contract": "contracts/TicketEngine.sol:TicketEngine",
        "label": "events",
        "offset": 0,
        "slot": "9",
        "type": "t_mapping(t_uint256,t_struct(Event)2942_storage)"
      },
      {
        "astId": 2977,
        "contract": "contracts/TicketEngine.sol:TicketEngine",
        "label": "tickets",
        "offset": 0,
        "slot": "10",
        "type": "t_mapping(t_uint256,t_struct(Ticket)2951_storage)"
      },
      {
        "astId": 2983,
        "contract": "contracts/TicketEngine.sol:TicketEngine",
        "label": "hasTicketForEvent",
        "offset": 0,
        "slot": "11",
        "type": "t_mapping(t_uint256,t_mapping(t_address,t_bool))"
      },
      {
        "astId": 2989,
        "contract": "contracts/TicketEngine.sol:TicketEngine",
        "label": "userTicketForEvent",
        "offset": 0,
        "slot": "12",
        "type": "t_mapping(t_uint256,t_mapping(t_address,t_uint256))"
      },
      {
        "astId": 2994,
        "contract": "contracts/TicketEngine.sol:TicketEngine",
        "label": "eventTickets",
        "offset": 0,
        "slot": "13",
        "type": "t_mapping(t_uint256,t_array(t_uint256)dyn_storage)"
      },
      {
        "astId": 2999,
        "contract": "contracts/TicketEngine.sol:TicketEngine",
        "label": "userEvents",
        "offset": 0,
        "slot": "14",
        "type": "t_mapping(t_address,t_array(t_uint256)dyn_storage)"
      },
      {
        "astId": 3005,
        "contract": "contracts/TicketEngine.sol:TicketEngine",
        "label": "userAttempts",
        "offset": 0,
        "slot": "15",
        "type": "t_mapping(t_address,t_array(t_struct(Attempt)2961_storage)dyn_storage)"
      },
      {
        "astId": 3008,
        "contract": "contracts/TicketEngine.sol:TicketEngine",
        "label": "allEventIds",
        "offset": 0,
        "slot": "16",
        "type": "t_array(t_uint256)dyn_storage"
      }
    ],
    "types": {
      "t_address": {
        "encoding": "inplace",
        "label": "address",
        "numberOfBytes": "20"
      },
      "t_array(t_struct(Attempt)2961_storage)dyn_storage": {
        "base": "t_struct(Attempt)2961_storage",
        "encoding": "dynamic_array",
        "label": "struct TicketEngine.Attempt[]",
        "numberOfBytes": "32"
      },
      "t_array(t_uint256)dyn_storage": {
        "base": "t_uint256",
        "encoding": "dynamic_array",
        "label": "uint256[]",
        "numberOfBytes": "32"
      },
      "t_bool": {
        "encoding": "inplace",
        "label": "bool",
        "numberOfBytes": "1"
      },
      "t_enum(AttemptResult)2927": {
        "encoding": "inplace",
        "label": "enum TicketEngine.AttemptResult",
        "numberOfBytes": "1"
      },
      "t_mapping(t_address,t_array(t_struct(Attempt)2961_storage)dyn_storage)": {
        "encoding": "mapping",
        "key": "t_address",
        "label": "mapping(address => struct TicketEngine.Attempt[])",
        "numberOfBytes": "32",
        "value": "t_array(t_struct(Attempt)2961_storage)dyn_storage"
      },
      "t_mapping(t_address,t_array(t_uint256)dyn_storage)": {
        "encoding": "mapping",
        "key": "t_address",
        "label": "mapping(address => uint256[])",
        "numberOfBytes": "32",
        "value": "t_array(t_uint256)dyn_storage"
      },
      "t_mapping(t_address,t_bool)": {
        "encoding": "mapping",
        "key": "t_address",
        "label": "mapping(address => bool)",
        "numberOfBytes": "32",
        "value": "t_bool"
      },
      "t_mapping(t_address,t_mapping(t_address,t_bool))": {
        "encoding": "mapping",
        "key": "t_address",
        "label": "mapping(address => mapping(address => bool))",
        "numberOfBytes": "32",
        "value": "t_mapping(t_address,t_bool)"
      },
      "t_mapping(t_address,t_uint256)": {
        "encoding": "mapping",
        "key": "t_address",
        "label": "mapping(address => uint256)",
        "numberOfBytes": "32",
        "value": "t_uint256"
      },
      "t_mapping(t_uint256,t_address)": {
        "encoding": "mapping",
        "key": "t_uint256",
        "label": "mapping(uint256 => address)",
        "numberOfBytes": "32",
        "value": "t_address"
      },
      "t_mapping(t_uint256,t_array(t_uint256)dyn_storage)": {
        "encoding": "mapping",
        "key": "t_uint256",
        "label": "mapping(uint256 => uint256[])",
        "numberOfBytes": "32",
        "value": "t_array(t_uint256)dyn_storage"
      },
      "t_mapping(t_uint256,t_mapping(t_address,t_bool))": {
        "encoding": "mapping",
        "key": "t_uint256",
        "label": "mapping(uint256 => mapping(address => bool))",
        "numberOfBytes": "32",
        "value": "t_mapping(t_address,t_bool)"
      },
      "t_mapping(t_uint256,t_mapping(t_address,t_uint256))": {
        "encoding": "mapping",
        "key": "t_uint256",
        "label": "mapping(uint256 => mapping(address => uint256))",
        "numberOfBytes": "32",
        "value": "t_mapping(t_address,t_uint256)"
      },
      "t_mapping(t_uint256,t_struct(Event)2942_storage)": {
        "encoding": "mapping",
        "key": "t_uint256",
        "label": "mapping(uint256 => struct TicketEngine.Event)",
        "numberOfBytes": "32",
        "value": "t_struct(Event)2942_storage"
      },
      "t_mapping(t_uint256,t_struct(Ticket)2951_storage)": {
        "encoding": "mapping",
        "key": "t_uint256",
        "label": "mapping(uint256 => struct TicketEngine.Ticket)",
        "numberOfBytes": "32",
        "value": "t_struct(Ticket)2951_storage"
      },
      "t_string_storage": {
        "encoding": "bytes",
        "label": "string",
        "numberOfBytes": "32"
      },
      "t_struct(Attempt)2961_storage": {
        "encoding": "inplace",
        "label": "struct TicketEngine.Attempt",
        "members": [
          {
            "astId": 2953,
            "contract": "contracts/TicketEngine.sol:TicketEngine",
            "label": "eventId",
            "offset": 0,
            "slot": "0",
            "type": "t_uint256"
          },
          {
            "astId": 2955,
            "contract": "contracts/TicketEngine.sol:TicketEngine",
            "label": "participant",
            "offset": 0,
            "slot": "1",
            "type": "t_address"
          },
          {
            "astId": 2957,
            "contract": "contracts/TicketEngine.sol:TicketEngine",
            "label": "timestamp",
            "offset": 0,
            "slot": "2",
            "type": "t_uint256"
          },
          {
            "astId": 2960,
            "contract": "contracts/TicketEngine.sol:TicketEngine",
            "label": "result",
            "offset": 0,
            "slot": "3",
            "type": "t_enum(AttemptResult)2927"
          }
        ],
        "numberOfBytes": "128"
      },
      "t_struct(Event)2942_storage": {
        "encoding": "inplace",
        "label": "struct TicketEngine.Event",
        "members": [
          {
            "astId": 2929,
            "contract": "contracts/TicketEngine.sol:TicketEngine",
            "label": "id",
            "offset": 0,
            "slot": "0",
            "type": "t_uint256"
          },
          {
            "astId": 2931,
            "contract": "contracts/TicketEngine.sol:TicketEngine",
            "label": "title",
            "offset": 0,
            "slot": "1",
            "type": "t_string_storage"
          },
          {
            "astId": 2933,
            "contract": "contracts/TicketEngine.sol:TicketEngine",
            "label": "startTime",
            "offset": 0,
            "slot": "2",
            "type": "t_uint256"
          },
          {
            "astId": 2935,
            "contract": "contracts/TicketEngine.sol:TicketEngine",
            "label": "totalTickets",
            "offset": 0,
            "slot": "3",
            "type": "t_uint256"
          },
          {
            "astId": 2937,
            "contract": "contracts/TicketEngine.sol:TicketEngine",
            "label": "remainingTickets",
            "offset": 0,
            "slot": "4",
            "type": "t_uint256"
          },
          {
            "astId": 2939,
            "contract": "contracts/TicketEngine.sol:TicketEngine",
            "label": "organizer",
            "offset": 0,
            "slot": "5",
            "type": "t_address"
          },
          {
            "astId": 2941,
            "contract": "contracts/TicketEngine.sol:TicketEngine",
            "label": "exists",
            "offset": 20,
            "slot": "5",
            "type": "t_bool"
          }
        ],
        "numberOfBytes": "192"
      },
      "t_struct(Ticket)2951_storage": {
        "encoding": "inplace",
        "label": "struct TicketEngine.Ticket",
        "members": [
          {
            "astId": 2944,
            "contract": "contracts/TicketEngine.sol:TicketEngine",
            "label": "id",
            "offset": 0,
            "slot": "0",
            "type": "t_uint256"
          },
          {
            "astId": 2946,
            "contract": "contracts/TicketEngine.sol:TicketEngine",
            "label": "eventId",
            "offset": 0,
            "slot": "1",
            "type": "t_uint256"
          },
          {
            "astId": 2948,
            "contract": "contracts/TicketEngine.sol:TicketEngine",
            "label": "owner",
            "offset": 0,
            "slot": "2",
            "type": "t_address"
          },
          {
            "astId": 2950,
            "contract": "contracts/TicketEngine.sol:TicketEngine",
            "label": "acquiredAt",
            "offset": 0,
            "slot": "3",
            "type": "t_uint256"
          }
        ],
        "numberOfBytes": "128"
      },
      "t_uint256": {
        "encoding": "inplace",
        "label": "uint256",
        "numberOfBytes": "32"
      }
    }
  }
}